{
  "_format": "hh3-artifact-1",
  "contractName": "PhysioChain",
  "sourceName": "contracts/PhysioChain.sol",
  "abi": [
    {
      "anonymous": false,
      "inputs": [
        {
          "indexed": true,
          "internalType": "uint256",
          "name": "id",
          "type": "uint256"
        },
        {
          "indexed": false,
          "internalType": "bytes32",
          "name": "commitment",
          "type": "bytes32"
        },
        {
          "indexed": false,
          "internalType": "string",
          "name": "did",
          "type": "string"
        }
      ],
      "name": "Registered",
      "type": "event"
    },
    {
      "anonymous": false,
      "inputs": [
        {
          "indexed": true,
          "internalType": "uint256",
          "name": "id",
          "type": "uint256"
        }
      ],
      "name": "Revoked",
      "type": "event"
    },
    {
      "inputs": [
        {
          "internalType": "uint256",
          "name": "id",
          "type": "uint256"
        }
      ],
      "name": "getRecord",
      "outputs": [
        {
          "internalType": "bytes32",
          "name": "",
          "type": "bytes32"
        },
        {
          "internalType": "string",
          "name": "",
          "type": "string"
        },
        {
          "internalType": "bool",
          "name": "",
          "type": "bool"
        },
        {
          "internalType": "uint256",
          "name": "",
          "type": "uint256"
        }
      ],
      "stateMutability": "view",
      "type": "function"
    },
    {
      "inputs": [
        {
          "internalType": "uint256",
          "name": "",
          "type": "uint256"
        }
      ],
      "name": "records",
      "outputs": [
        {
          "internalType": "bytes32",
          "name": "commitment",
          "type": "bytes32"
        },
        {
          "internalType": "string",
          "name": "did",
          "type": "string"
        },
        {
          "internalType": "bool",
          "name": "revoked",
          "type": "bool"
        },
        {
          "internalType": "uint256",
          "name": "timestamp",
          "type": "uint256"
        }
      ],
      "stateMutability": "view",
      "type": "function"
    },
    {
      "inputs": [
        {
          "internalType": "bytes32",
          "name": "commitment",
          "type": "bytes32"
        },
        {
          "internalType": "string",
          "name": "did",
          "type": "string"
        }
      ],
      "name": "register",
      "outputs": [
        {
          "internalType": "uint256",
          "name": "",
          "type": "uint256"
        }
      ],
      "stateMutability": "nonpayable",
      "type": "function"
    },
    {
      "inputs": [
        {
          "internalType": "uint256",
          "name": "id",
          "type": "uint256"
        }
      ],
      "name": "revoke",
      "outputs": [],
      "stateMutability": "nonpayable",
      "type": "function"
    }
  ],
  "bytecode": "0x608060405234801561000f575f80fd5b50610c0d8061001d5f395ff3fe608060405234801561000f575f80fd5b506004361061004a575f3560e01c806303e9e6091461004e57806320c5429b14610081578063344610671461009d578063cf2d31fb146100d0575b5f80fd5b61006860048036038101906100639190610541565b610100565b6040516100789493929190610637565b60405180910390f35b61009b60048036038101906100969190610541565b610258565b005b6100b760048036038101906100b29190610541565b610308565b6040516100c79493929190610637565b60405180910390f35b6100ea60048036038101906100e5919061070c565b6103d4565b6040516100f79190610769565b60405180910390f35b5f60605f805f80549050851061014b576040517f08c379a0000000000000000000000000000000000000000000000000000000008152600401610142906107cc565b60405180910390fd5b5f80868154811061015f5761015e6107ea565b5b905f5260205f2090600402016040518060800160405290815f820154815260200160018201805461018f90610844565b80601f01602080910402602001604051908101604052809291908181526020018280546101bb90610844565b80156102065780601f106101dd57610100808354040283529160200191610206565b820191905f5260205f20905b8154815290600101906020018083116101e957829003601f168201915b50505050508152602001600282015f9054906101000a900460ff161515151581526020016003820154815250509050805f01518160200151826040015183606001519450945094509450509193509193565b5f80549050811061029e576040517f08c379a0000000000000000000000000000000000000000000000000000000008152600401610295906107cc565b60405180910390fd5b60015f82815481106102b3576102b26107ea565b5b905f5260205f2090600402016002015f6101000a81548160ff021916908315150217905550807f61e27b0bfd8e18e6b92ec32ce1c28bb698d27bfe93e84c7e94d4db0a3135c76060405160405180910390a250565b5f8181548110610316575f80fd5b905f5260205f2090600402015f91509050805f01549080600101805461033b90610844565b80601f016020809104026020016040519081016040528092919081815260200182805461036790610844565b80156103b25780601f10610389576101008083540402835291602001916103b2565b820191905f5260205f20905b81548152906001019060200180831161039557829003601f168201915b505050505090806002015f9054906101000a900460ff16908060030154905084565b5f80604051806080016040528086815260200185858080601f0160208091040260200160405190810160405280939291908181526020018383808284375f81840152601f19601f8201169050808301925050505050505081526020015f1515815260200142815250908060018154018082558091505060019003905f5260205f2090600402015f909190919091505f820151815f0155602082015181600101908161047f9190610a3e565b506040820151816002015f6101000a81548160ff0219169083151502179055506060820151816003015550505f60015f805490506104bd9190610b3a565b9050807ffd8e67ab83331d34a6748dcd1611c15989ad26658b569fb886f66440bdf12f1a8686866040516104f393929190610ba7565b60405180910390a2809150509392505050565b5f80fd5b5f80fd5b5f819050919050565b6105208161050e565b811461052a575f80fd5b50565b5f8135905061053b81610517565b92915050565b5f6020828403121561055657610555610506565b5b5f6105638482850161052d565b91505092915050565b5f819050919050565b61057e8161056c565b82525050565b5f81519050919050565b5f82825260208201905092915050565b5f5b838110156105bb5780820151818401526020810190506105a0565b5f8484015250505050565b5f601f19601f8301169050919050565b5f6105e082610584565b6105ea818561058e565b93506105fa81856020860161059e565b610603816105c6565b840191505092915050565b5f8115159050919050565b6106228161060e565b82525050565b6106318161050e565b82525050565b5f60808201905061064a5f830187610575565b818103602083015261065c81866105d6565b905061066b6040830185610619565b6106786060830184610628565b95945050505050565b61068a8161056c565b8114610694575f80fd5b50565b5f813590506106a581610681565b92915050565b5f80fd5b5f80fd5b5f80fd5b5f8083601f8401126106cc576106cb6106ab565b5b8235905067ffffffffffffffff8111156106e9576106e86106af565b5b602083019150836001820283011115610705576107046106b3565b5b9250929050565b5f805f6040848603121561072357610722610506565b5b5f61073086828701610697565b935050602084013567ffffffffffffffff8111156107515761075061050a565b5b61075d868287016106b7565b92509250509250925092565b5f60208201905061077c5f830184610628565b92915050565b7f496e76616c6964204944000000000000000000000000000000000000000000005f82015250565b5f6107b6600a8361058e565b91506107c182610782565b602082019050919050565b5f6020820190508181035f8301526107e3816107aa565b9050919050565b7f4e487b71000000000000000000000000000000000000000000000000000000005f52603260045260245ffd5b7f4e487b71000000000000000000000000000000000000000000000000000000005f52602260045260245ffd5b5f600282049050600182168061085b57607f821691505b60208210810361086e5761086d610817565b5b50919050565b7f4e487b71000000000000000000000000000000000000000000000000000000005f52604160045260245ffd5b5f819050815f5260205f209050919050565b5f6020601f8301049050919050565b5f82821b905092915050565b5f600883026108fd7fffffffffffffffffffffffffffffffffffffffffffffffffffffffffffffffff826108c2565b61090786836108c2565b95508019841693508086168417925050509392505050565b5f819050919050565b5f61094261093d6109388461050e565b61091f565b61050e565b9050919050565b5f819050919050565b61095b83610928565b61096f61096782610949565b8484546108ce565b825550505050565b5f90565b610983610977565b61098e818484610952565b505050565b5b818110156109b1576109a65f8261097b565b600181019050610994565b5050565b601f8211156109f6576109c7816108a1565b6109d0846108b3565b810160208510156109df578190505b6109f36109eb856108b3565b830182610993565b50505b505050565b5f82821c905092915050565b5f610a165f19846008026109fb565b1980831691505092915050565b5f610a2e8383610a07565b9150826002028217905092915050565b610a4782610584565b67ffffffffffffffff811115610a6057610a5f610874565b5b610a6a8254610844565b610a758282856109b5565b5f60209050601f831160018114610aa6575f8415610a94578287015190505b610a9e8582610a23565b865550610b05565b601f198416610ab4866108a1565b5f5b82811015610adb57848901518255600182019150602085019450602081019050610ab6565b86831015610af85784890151610af4601f891682610a07565b8355505b6001600288020188555050505b505050505050565b7f4e487b71000000000000000000000000000000000000000000000000000000005f52601160045260245ffd5b5f610b448261050e565b9150610b4f8361050e565b9250828203905081811115610b6757610b66610b0d565b5b92915050565b828183375f83830152505050565b5f610b86838561058e565b9350610b93838584610b6d565b610b9c836105c6565b840190509392505050565b5f604082019050610bba5f830186610575565b8181036020830152610bcd818486610b7b565b905094935050505056fea264697066735822122080d128908cbbef82cad53b8bb38ef663389c019912853f78383b95448e45e55c64736f6c63430008140033",
  "linkReferences": {},
  "deployedLinkReferences": {},
  "immutableReferences": {},
  "inputSourceName": "project/contracts/PhysioChain.sol",
  "buildInfoId": "solc-0_8_20-8d8fe5935f9b8014bd791fb7a779bb5577f729d2"
}